{
  "_format": "hh-sol-artifact-1",
  "contractName": "NFTAuction",
  "sourceName": "contracts/NFTAuction.sol",
  "abi": [
    {
      "inputs": [
        {
          "internalType": "address",
          "name": "target",
          "type": "address"
        }
      ],
      "name": "AddressEmptyCode",
      "type": "error"
    },
    {
      "inputs": [
        {
          "internalType": "address",
          "name": "implementation",
          "type": "address"
        }
      ],
      "name": "ERC1967InvalidImplementation",
      "type": "error"
    },
    {
      "inputs": [],
      "name": "ERC1967NonPayable",
      "type": "error"
    },
    {
      "inputs": [],
      "name": "FailedCall",
      "type": "error"
    },
    {
      "inputs": [],
      "name": "InvalidInitialization",
      "type": "error"
    },
    {
      "inputs": [],
      "name": "NotInitializing",
      "type": "error"
    },
    {
      "inputs": [],
      "name": "UUPSUnauthorizedCallContext",
      "type": "error"
    },
    {
      "inputs": [
        {
          "internalType": "bytes32",
          "name": "slot",
          "type": "bytes32"
        }
      ],
      "name": "UUPSUnsupportedProxiableUUID",
      "type": "error"
    },
    {
      "anonymous": false,
      "inputs": [
        {
          "indexed": false,
          "internalType": "uint64",
          "name": "version",
          "type": "uint64"
        }
      ],
      "name": "Initialized",
      "type": "event"
    },
    {
      "anonymous": false,
      "inputs": [
        {
          "indexed": true,
          "internalType": "address",
          "name": "implementation",
          "type": "address"
        }
      ],
      "name": "Upgraded",
      "type": "event"
    },
    {
      "inputs": [],
      "name": "UPGRADE_INTERFACE_VERSION",
      "outputs": [
        {
          "internalType": "string",
          "name": "",
          "type": "string"
        }
      ],
      "stateMutability": "view",
      "type": "function"
    },
    {
      "inputs": [],
      "name": "admin",
      "outputs": [
        {
          "internalType": "address",
          "name": "",
          "type": "address"
        }
      ],
      "stateMutability": "view",
      "type": "function"
    },
    {
      "inputs": [
        {
          "internalType": "uint256",
          "name": "",
          "type": "uint256"
        }
      ],
      "name": "auctions",
      "outputs": [
        {
          "internalType": "address",
          "name": "seller",
          "type": "address"
        },
        {
          "internalType": "uint256",
          "name": "duration",
          "type": "uint256"
        },
        {
          "internalType": "uint256",
          "name": "startTime",
          "type": "uint256"
        },
        {
          "internalType": "uint256",
          "name": "startPrice",
          "type": "uint256"
        },
        {
          "internalType": "bool",
          "name": "ended",
          "type": "bool"
        },
        {
          "internalType": "address",
          "name": "highestBidder",
          "type": "address"
        },
        {
          "internalType": "uint256",
          "name": "highestBid",
          "type": "uint256"
        },
        {
          "internalType": "address",
          "name": "nftAddress",
          "type": "address"
        },
        {
          "internalType": "uint256",
          "name": "tokenId",
          "type": "uint256"
        }
      ],
      "stateMutability": "view",
      "type": "function"
    },
    {
      "inputs": [
        {
          "internalType": "uint256",
          "name": "_duration",
          "type": "uint256"
        },
        {
          "internalType": "uint256",
          "name": "_startPrice",
          "type": "uint256"
        },
        {
          "internalType": "address",
          "name": "_nftAddress",
          "type": "address"
        },
        {
          "internalType": "uint256",
          "name": "_tokenId",
          "type": "uint256"
        }
      ],
      "name": "createAuction",
      "outputs": [],
      "stateMutability": "nonpayable",
      "type": "function"
    },
    {
      "inputs": [],
      "name": "initialize",
      "outputs": [],
      "stateMutability": "nonpayable",
      "type": "function"
    },
    {
      "inputs": [],
      "name": "nextAuctionId",
      "outputs": [
        {
          "internalType": "uint256",
          "name": "",
          "type": "uint256"
        }
      ],
      "stateMutability": "view",
      "type": "function"
    },
    {
      "inputs": [
        {
          "internalType": "uint256",
          "name": "_auctionId",
          "type": "uint256"
        }
      ],
      "name": "placeBid",
      "outputs": [],
      "stateMutability": "payable",
      "type": "function"
    },
    {
      "inputs": [],
      "name": "platformFee",
      "outputs": [
        {
          "internalType": "uint256",
          "name": "",
          "type": "uint256"
        }
      ],
      "stateMutability": "view",
      "type": "function"
    },
    {
      "inputs": [],
      "name": "proxiableUUID",
      "outputs": [
        {
          "internalType": "bytes32",
          "name": "",
          "type": "bytes32"
        }
      ],
      "stateMutability": "view",
      "type": "function"
    },
    {
      "inputs": [
        {
          "internalType": "address",
          "name": "newImplementation",
          "type": "address"
        },
        {
          "internalType": "bytes",
          "name": "data",
          "type": "bytes"
        }
      ],
      "name": "upgradeToAndCall",
      "outputs": [],
      "stateMutability": "payable",
      "type": "function"
    }
  ],
  "bytecode": "0x60a06040523073ffffffffffffffffffffffffffffffffffffffff1660809073ffffffffffffffffffffffffffffffffffffffff16815250348015604257600080fd5b50608051611b8661006c60003960008181610a6401528181610ab90152610d8c0152611b866000f3fe6080604052600436106100915760003560e01c80639979ef45116100595780639979ef4514610164578063ad3cb1cc14610180578063b1cb48ef146101ab578063f851a440146101d4578063fc528482146101ff57610091565b806326232a2e146100965780634f1ef286146100c157806352d1902d146100dd578063571a26a0146101085780638129fc1c1461014d575b600080fd5b3480156100a257600080fd5b506100ab61022a565b6040516100b8919061119e565b60405180910390f35b6100db60048036038101906100d69190611371565b610230565b005b3480156100e957600080fd5b506100f261024f565b6040516100ff91906113e6565b60405180910390f35b34801561011457600080fd5b5061012f600480360381019061012a919061142d565b610282565b60405161014499989796959493929190611484565b60405180910390f35b34801561015957600080fd5b5061016261033d565b005b61017e6004803603810190610179919061142d565b610503565b005b34801561018c57600080fd5b506101956106f7565b6040516101a29190611590565b60405180910390f35b3480156101b757600080fd5b506101d260048036038101906101cd91906115b2565b610730565b005b3480156101e057600080fd5b506101e9610a36565b6040516101f69190611619565b60405180910390f35b34801561020b57600080fd5b50610214610a5c565b604051610221919061119e565b60405180910390f35b60035481565b610238610a62565b61024182610b48565b61024b8282610c6b565b5050565b6000610259610d8a565b7f360894a13ba1a3210667c828492db98dca3e2076cc3735a920a3ca505d382bbc60001b905090565b60006020528060005260406000206000915090508060000160009054906101000a900473ffffffffffffffffffffffffffffffffffffffff16908060010154908060020154908060030154908060040160009054906101000a900460ff16908060040160019054906101000a900473ffffffffffffffffffffffffffffffffffffffff16908060050154908060060160009054906101000a900473ffffffffffffffffffffffffffffffffffffffff16908060070154905089565b6000610347610e11565b905060008160000160089054906101000a900460ff1615905060008260000160009054906101000a900467ffffffffffffffff1690506000808267ffffffffffffffff161480156103955750825b9050600060018367ffffffffffffffff161480156103ca575060003073ffffffffffffffffffffffffffffffffffffffff163b145b9050811580156103d8575080155b1561040f576040517ff92ee8a900000000000000000000000000000000000000000000000000000000815260040160405180910390fd5b60018560000160006101000a81548167ffffffffffffffff021916908367ffffffffffffffff160217905550831561045f5760018560000160086101000a81548160ff0219169083151502179055505b33600260006101000a81548173ffffffffffffffffffffffffffffffffffffffff021916908373ffffffffffffffffffffffffffffffffffffffff16021790555083156104fc5760008560000160086101000a81548160ff0219169083151502179055507fc7f505b2f371ae2175ee4913f4499e1f2633a7b5936321eed1cdaeb6115181d260016040516104f3919061168d565b60405180910390a15b5050505050565b600080600083815260200190815260200160002090508060040160009054906101000a900460ff1615801561054a5750428160010154826002015461054891906116d7565b115b610589576040517f08c379a000000000000000000000000000000000000000000000000000000000815260040161058090611757565b60405180910390fd5b8060050154341180156105a0575080600301543410155b6105df576040517f08c379a00000000000000000000000000000000000000000000000000000000081526004016105d6906117e9565b60405180910390fd5b600073ffffffffffffffffffffffffffffffffffffffff168160040160019054906101000a900473ffffffffffffffffffffffffffffffffffffffff1673ffffffffffffffffffffffffffffffffffffffff16146106a7578060040160019054906101000a900473ffffffffffffffffffffffffffffffffffffffff1673ffffffffffffffffffffffffffffffffffffffff166108fc82600501549081150290604051600060405180830381858888f193505050501580156106a5573d6000803e3d6000fd5b505b338160040160016101000a81548173ffffffffffffffffffffffffffffffffffffffff021916908373ffffffffffffffffffffffffffffffffffffffff1602179055503481600501819055505050565b6040518060400160405280600581526020017f352e302e3000000000000000000000000000000000000000000000000000000081525081565b600260009054906101000a900473ffffffffffffffffffffffffffffffffffffffff1673ffffffffffffffffffffffffffffffffffffffff163373ffffffffffffffffffffffffffffffffffffffff16146107c0576040517f08c379a00000000000000000000000000000000000000000000000000000000081526004016107b79061187b565b60405180910390fd5b61ea608411610804576040517f08c379a00000000000000000000000000000000000000000000000000000000081526004016107fb9061190d565b60405180910390fd5b60008311610847576040517f08c379a000000000000000000000000000000000000000000000000000000000815260040161083e9061199f565b60405180910390fd5b6040518061012001604052803373ffffffffffffffffffffffffffffffffffffffff168152602001854261087b91906116d7565b8152602001428152602001848152602001600015158152602001600073ffffffffffffffffffffffffffffffffffffffff168152602001600081526020018373ffffffffffffffffffffffffffffffffffffffff16815260200182815250600080600154815260200190815260200160002060008201518160000160006101000a81548173ffffffffffffffffffffffffffffffffffffffff021916908373ffffffffffffffffffffffffffffffffffffffff16021790555060208201518160010155604082015181600201556060820151816003015560808201518160040160006101000a81548160ff02191690831515021790555060a08201518160040160016101000a81548173ffffffffffffffffffffffffffffffffffffffff021916908373ffffffffffffffffffffffffffffffffffffffff16021790555060c0820151816005015560e08201518160060160006101000a81548173ffffffffffffffffffffffffffffffffffffffff021916908373ffffffffffffffffffffffffffffffffffffffff160217905550610100820151816007015590505060016000815480929190610a2b906119bf565b919050555050505050565b600260009054906101000a900473ffffffffffffffffffffffffffffffffffffffff1681565b60015481565b7f000000000000000000000000000000000000000000000000000000000000000073ffffffffffffffffffffffffffffffffffffffff163073ffffffffffffffffffffffffffffffffffffffff161480610b0f57507f000000000000000000000000000000000000000000000000000000000000000073ffffffffffffffffffffffffffffffffffffffff16610af6610e25565b73ffffffffffffffffffffffffffffffffffffffff1614155b15610b46576040517fe07c8dba00000000000000000000000000000000000000000000000000000000815260040160405180910390fd5b565b600260009054906101000a900473ffffffffffffffffffffffffffffffffffffffff1673ffffffffffffffffffffffffffffffffffffffff163373ffffffffffffffffffffffffffffffffffffffff1614610bd8576040517f08c379a0000000000000000000000000000000000000000000000000000000008152600401610bcf9061187b565b60405180910390fd5b600260009054906101000a900473ffffffffffffffffffffffffffffffffffffffff1673ffffffffffffffffffffffffffffffffffffffff163373ffffffffffffffffffffffffffffffffffffffff1614610c68576040517f08c379a0000000000000000000000000000000000000000000000000000000008152600401610c5f90611a79565b60405180910390fd5b50565b8173ffffffffffffffffffffffffffffffffffffffff166352d1902d6040518163ffffffff1660e01b8152600401602060405180830381865afa925050508015610cd357506040513d601f19601f82011682018060405250810190610cd09190611ac5565b60015b610d1457816040517f4c9c8ce3000000000000000000000000000000000000000000000000000000008152600401610d0b9190611619565b60405180910390fd5b7f360894a13ba1a3210667c828492db98dca3e2076cc3735a920a3ca505d382bbc60001b8114610d7b57806040517faa1d49a4000000000000000000000000000000000000000000000000000000008152600401610d7291906113e6565b60405180910390fd5b610d858383610e7c565b505050565b7f000000000000000000000000000000000000000000000000000000000000000073ffffffffffffffffffffffffffffffffffffffff163073ffffffffffffffffffffffffffffffffffffffff1614610e0f576040517fe07c8dba00000000000000000000000000000000000000000000000000000000815260040160405180910390fd5b565b600080610e1c610eef565b90508091505090565b6000610e537f360894a13ba1a3210667c828492db98dca3e2076cc3735a920a3ca505d382bbc60001b610f1a565b60000160009054906101000a900473ffffffffffffffffffffffffffffffffffffffff16905090565b610e8582610f24565b8173ffffffffffffffffffffffffffffffffffffffff167fbc7cd75a20ee27fd9adebab32041f755214dbc6bffa90cc0225b39da2e5c2d3b60405160405180910390a2600081511115610ee257610edc8282610ff1565b50610eeb565b610eea611075565b5b5050565b60007ff0c57e16840df040f15088dc2f81fe391c3923bec73e23a9662efc9c229c6a0060001b905090565b6000819050919050565b60008173ffffffffffffffffffffffffffffffffffffffff163b03610f8057806040517f4c9c8ce3000000000000000000000000000000000000000000000000000000008152600401610f779190611619565b60405180910390fd5b80610fad7f360894a13ba1a3210667c828492db98dca3e2076cc3735a920a3ca505d382bbc60001b610f1a565b60000160006101000a81548173ffffffffffffffffffffffffffffffffffffffff021916908373ffffffffffffffffffffffffffffffffffffffff16021790555050565b60606000808473ffffffffffffffffffffffffffffffffffffffff168460405161101b9190611b39565b600060405180830381855af49150503d8060008114611056576040519150601f19603f3d011682016040523d82523d6000602084013e61105b565b606091505b509150915061106b8583836110b2565b9250505092915050565b60003411156110b0576040517fb398979f00000000000000000000000000000000000000000000000000000000815260040160405180910390fd5b565b6060826110c7576110c282611141565b611139565b600082511480156110ef575060008473ffffffffffffffffffffffffffffffffffffffff163b145b1561113157836040517f9996b3150000000000000000000000000000000000000000000000000000000081526004016111289190611619565b60405180910390fd5b81905061113a565b5b9392505050565b60008151111561115357805160208201fd5b6040517fd6bda27500000000000000000000000000000000000000000000000000000000815260040160405180910390fd5b6000819050919050565b61119881611185565b82525050565b60006020820190506111b3600083018461118f565b92915050565b6000604051905090565b600080fd5b600080fd5b600073ffffffffffffffffffffffffffffffffffffffff82169050919050565b60006111f8826111cd565b9050919050565b611208816111ed565b811461121357600080fd5b50565b600081359050611225816111ff565b92915050565b600080fd5b600080fd5b6000601f19601f8301169050919050565b7f4e487b7100000000000000000000000000000000000000000000000000000000600052604160045260246000fd5b61127e82611235565b810181811067ffffffffffffffff8211171561129d5761129c611246565b5b80604052505050565b60006112b06111b9565b90506112bc8282611275565b919050565b600067ffffffffffffffff8211156112dc576112db611246565b5b6112e582611235565b9050602081019050919050565b82818337600083830152505050565b600061131461130f846112c1565b6112a6565b9050828152602081018484840111156113305761132f611230565b5b61133b8482856112f2565b509392505050565b600082601f8301126113585761135761122b565b5b8135611368848260208601611301565b91505092915050565b60008060408385031215611388576113876111c3565b5b600061139685828601611216565b925050602083013567ffffffffffffffff8111156113b7576113b66111c8565b5b6113c385828601611343565b9150509250929050565b6000819050919050565b6113e0816113cd565b82525050565b60006020820190506113fb60008301846113d7565b92915050565b61140a81611185565b811461141557600080fd5b50565b60008135905061142781611401565b92915050565b600060208284031215611443576114426111c3565b5b600061145184828501611418565b91505092915050565b611463816111ed565b82525050565b60008115159050919050565b61147e81611469565b82525050565b60006101208201905061149a600083018c61145a565b6114a7602083018b61118f565b6114b4604083018a61118f565b6114c1606083018961118f565b6114ce6080830188611475565b6114db60a083018761145a565b6114e860c083018661118f565b6114f560e083018561145a565b61150361010083018461118f565b9a9950505050505050505050565b600081519050919050565b600082825260208201905092915050565b60005b8381101561154b578082015181840152602081019050611530565b60008484015250505050565b600061156282611511565b61156c818561151c565b935061157c81856020860161152d565b61158581611235565b840191505092915050565b600060208201905081810360008301526115aa8184611557565b905092915050565b600080600080608085870312156115cc576115cb6111c3565b5b60006115da87828801611418565b94505060206115eb87828801611418565b93505060406115fc87828801611216565b925050606061160d87828801611418565b91505092959194509250565b600060208201905061162e600083018461145a565b92915050565b6000819050919050565b600067ffffffffffffffff82169050919050565b6000819050919050565b600061167761167261166d84611634565b611652565b61163e565b9050919050565b6116878161165c565b82525050565b60006020820190506116a2600083018461167e565b92915050565b7f4e487b7100000000000000000000000000000000000000000000000000000000600052601160045260246000fd5b60006116e282611185565b91506116ed83611185565b9250828201905080821115611705576117046116a8565b5b92915050565b7f41756374696f6e2068617320656e646564000000000000000000000000000000600082015250565b600061174160118361151c565b915061174c8261170b565b602082019050919050565b6000602082019050818103600083015261177081611734565b9050919050565b7f426964206d75737420626520686967686572207468616e2063757272656e742060008201527f6869676865737420626964000000000000000000000000000000000000000000602082015250565b60006117d3602b8361151c565b91506117de82611777565b604082019050919050565b60006020820190508181036000830152611802816117c6565b9050919050565b7f4f6e6c792061646d696e2063616e20706572666f726d2074686973206163746960008201527f6f6e000000000000000000000000000000000000000000000000000000000000602082015250565b600061186560228361151c565b915061187082611809565b604082019050919050565b6000602082019050818103600083015261189481611858565b9050919050565b7f4475726174696f6e206d7573742062652067726561746572207468616e20312060008201527f6d696e7574650000000000000000000000000000000000000000000000000000602082015250565b60006118f760268361151c565b91506119028261189b565b604082019050919050565b60006020820190508181036000830152611926816118ea565b9050919050565b7f5374617274207072696365206d7573742062652067726561746572207468616e60008201527f2030000000000000000000000000000000000000000000000000000000000000602082015250565b600061198960228361151c565b91506119948261192d565b604082019050919050565b600060208201905081810360008301526119b88161197c565b9050919050565b60006119ca82611185565b91507fffffffffffffffffffffffffffffffffffffffffffffffffffffffffffffffff82036119fc576119fb6116a8565b5b600182019050919050565b7f4f6e6c792061646d696e2063616e20757067726164652074686520636f6e747260008201527f6163740000000000000000000000000000000000000000000000000000000000602082015250565b6000611a6360238361151c565b9150611a6e82611a07565b604082019050919050565b60006020820190508181036000830152611a9281611a56565b9050919050565b611aa2816113cd565b8114611aad57600080fd5b50565b600081519050611abf81611a99565b92915050565b600060208284031215611adb57611ada6111c3565b5b6000611ae984828501611ab0565b91505092915050565b600081519050919050565b600081905092915050565b6000611b1382611af2565b611b1d8185611afd565b9350611b2d81856020860161152d565b80840191505092915050565b6000611b458284611b08565b91508190509291505056fea2646970667358221220167a128c397519117479a3fd535b6a5f603afe9b3ed7517dbce2d8d5dc36f62d64736f6c634300081c0033",
  "linkReferences": {},
  "deployedLinkReferences": {}
}