{
  "_format": "hh-sol-artifact-1",
  "contractName": "NFTAuction",
  "sourceName": "contracts/NFTAuction.sol",
  "abi": [
    {
      "inputs": [],
      "name": "InvalidInitialization",
      "type": "error"
    },
    {
      "inputs": [],
      "name": "NotInitializing",
      "type": "error"
    },
    {
      "anonymous": false,
      "inputs": [
        {
          "indexed": false,
          "internalType": "uint64",
          "name": "version",
          "type": "uint64"
        }
      ],
      "name": "Initialized",
      "type": "event"
    },
    {
      "inputs": [],
      "name": "admin",
      "outputs": [
        {
          "internalType": "address",
          "name": "",
          "type": "address"
        }
      ],
      "stateMutability": "view",
      "type": "function"
    },
    {
      "inputs": [
        {
          "internalType": "uint256",
          "name": "",
          "type": "uint256"
        }
      ],
      "name": "auctions",
      "outputs": [
        {
          "internalType": "address",
          "name": "seller",
          "type": "address"
        },
        {
          "internalType": "uint256",
          "name": "duration",
          "type": "uint256"
        },
        {
          "internalType": "uint256",
          "name": "startTime",
          "type": "uint256"
        },
        {
          "internalType": "uint256",
          "name": "startPrice",
          "type": "uint256"
        },
        {
          "internalType": "bool",
          "name": "ended",
          "type": "bool"
        },
        {
          "internalType": "address",
          "name": "highestBidder",
          "type": "address"
        },
        {
          "internalType": "uint256",
          "name": "highestBid",
          "type": "uint256"
        },
        {
          "internalType": "address",
          "name": "nftAddress",
          "type": "address"
        },
        {
          "internalType": "uint256",
          "name": "tokenId",
          "type": "uint256"
        }
      ],
      "stateMutability": "view",
      "type": "function"
    },
    {
      "inputs": [
        {
          "internalType": "uint256",
          "name": "_duration",
          "type": "uint256"
        },
        {
          "internalType": "uint256",
          "name": "_startPrice",
          "type": "uint256"
        },
        {
          "internalType": "address",
          "name": "_nftAddress",
          "type": "address"
        },
        {
          "internalType": "uint256",
          "name": "_tokenId",
          "type": "uint256"
        }
      ],
      "name": "createAuction",
      "outputs": [],
      "stateMutability": "nonpayable",
      "type": "function"
    },
    {
      "inputs": [],
      "name": "initialize",
      "outputs": [],
      "stateMutability": "nonpayable",
      "type": "function"
    },
    {
      "inputs": [],
      "name": "nextAuctionId",
      "outputs": [
        {
          "internalType": "uint256",
          "name": "",
          "type": "uint256"
        }
      ],
      "stateMutability": "view",
      "type": "function"
    },
    {
      "inputs": [
        {
          "internalType": "uint256",
          "name": "_auctionId",
          "type": "uint256"
        }
      ],
      "name": "placeBid",
      "outputs": [],
      "stateMutability": "payable",
      "type": "function"
    },
    {
      "inputs": [],
      "name": "platformFee",
      "outputs": [
        {
          "internalType": "uint256",
          "name": "",
          "type": "uint256"
        }
      ],
      "stateMutability": "view",
      "type": "function"
    }
  ],
  "bytecode": "0x6080604052348015600f57600080fd5b50610fc68061001f6000396000f3fe6080604052600436106100705760003560e01c80639979ef451161004e5780639979ef45146100fc578063b1cb48ef14610118578063f851a44014610141578063fc5284821461016c57610070565b806326232a2e14610075578063571a26a0146100a05780638129fc1c146100e5575b600080fd5b34801561008157600080fd5b5061008a610197565b604051610097919061099c565b60405180910390f35b3480156100ac57600080fd5b506100c760048036038101906100c291906109e8565b61019d565b6040516100dc99989796959493929190610a71565b60405180910390f35b3480156100f157600080fd5b506100fa610258565b005b610116600480360381019061011191906109e8565b61041e565b005b34801561012457600080fd5b5061013f600480360381019061013a9190610b2a565b610612565b005b34801561014d57600080fd5b50610156610918565b6040516101639190610b91565b60405180910390f35b34801561017857600080fd5b5061018161093e565b60405161018e919061099c565b60405180910390f35b60035481565b60006020528060005260406000206000915090508060000160009054906101000a900473ffffffffffffffffffffffffffffffffffffffff16908060010154908060020154908060030154908060040160009054906101000a900460ff16908060040160019054906101000a900473ffffffffffffffffffffffffffffffffffffffff16908060050154908060060160009054906101000a900473ffffffffffffffffffffffffffffffffffffffff16908060070154905089565b6000610262610944565b905060008160000160089054906101000a900460ff1615905060008260000160009054906101000a900467ffffffffffffffff1690506000808267ffffffffffffffff161480156102b05750825b9050600060018367ffffffffffffffff161480156102e5575060003073ffffffffffffffffffffffffffffffffffffffff163b145b9050811580156102f3575080155b1561032a576040517ff92ee8a900000000000000000000000000000000000000000000000000000000815260040160405180910390fd5b60018560000160006101000a81548167ffffffffffffffff021916908367ffffffffffffffff160217905550831561037a5760018560000160086101000a81548160ff0219169083151502179055505b33600260006101000a81548173ffffffffffffffffffffffffffffffffffffffff021916908373ffffffffffffffffffffffffffffffffffffffff16021790555083156104175760008560000160086101000a81548160ff0219169083151502179055507fc7f505b2f371ae2175ee4913f4499e1f2633a7b5936321eed1cdaeb6115181d2600160405161040e9190610c05565b60405180910390a15b5050505050565b600080600083815260200190815260200160002090508060040160009054906101000a900460ff16158015610465575042816001015482600201546104639190610c4f565b115b6104a4576040517f08c379a000000000000000000000000000000000000000000000000000000000815260040161049b90610ce0565b60405180910390fd5b8060050154341180156104bb575080600301543410155b6104fa576040517f08c379a00000000000000000000000000000000000000000000000000000000081526004016104f190610d72565b60405180910390fd5b600073ffffffffffffffffffffffffffffffffffffffff168160040160019054906101000a900473ffffffffffffffffffffffffffffffffffffffff1673ffffffffffffffffffffffffffffffffffffffff16146105c2578060040160019054906101000a900473ffffffffffffffffffffffffffffffffffffffff1673ffffffffffffffffffffffffffffffffffffffff166108fc82600501549081150290604051600060405180830381858888f193505050501580156105c0573d6000803e3d6000fd5b505b338160040160016101000a81548173ffffffffffffffffffffffffffffffffffffffff021916908373ffffffffffffffffffffffffffffffffffffffff1602179055503481600501819055505050565b600260009054906101000a900473ffffffffffffffffffffffffffffffffffffffff1673ffffffffffffffffffffffffffffffffffffffff163373ffffffffffffffffffffffffffffffffffffffff16146106a2576040517f08c379a000000000000000000000000000000000000000000000000000000000815260040161069990610e04565b60405180910390fd5b61ea6084116106e6576040517f08c379a00000000000000000000000000000000000000000000000000000000081526004016106dd90610e96565b60405180910390fd5b60008311610729576040517f08c379a000000000000000000000000000000000000000000000000000000000815260040161072090610f28565b60405180910390fd5b6040518061012001604052803373ffffffffffffffffffffffffffffffffffffffff168152602001854261075d9190610c4f565b8152602001428152602001848152602001600015158152602001600073ffffffffffffffffffffffffffffffffffffffff168152602001600081526020018373ffffffffffffffffffffffffffffffffffffffff16815260200182815250600080600154815260200190815260200160002060008201518160000160006101000a81548173ffffffffffffffffffffffffffffffffffffffff021916908373ffffffffffffffffffffffffffffffffffffffff16021790555060208201518160010155604082015181600201556060820151816003015560808201518160040160006101000a81548160ff02191690831515021790555060a08201518160040160016101000a81548173ffffffffffffffffffffffffffffffffffffffff021916908373ffffffffffffffffffffffffffffffffffffffff16021790555060c0820151816005015560e08201518160060160006101000a81548173ffffffffffffffffffffffffffffffffffffffff021916908373ffffffffffffffffffffffffffffffffffffffff16021790555061010082015181600701559050506001600081548092919061090d90610f48565b919050555050505050565b600260009054906101000a900473ffffffffffffffffffffffffffffffffffffffff1681565b60015481565b60008061094f610958565b90508091505090565b60007ff0c57e16840df040f15088dc2f81fe391c3923bec73e23a9662efc9c229c6a0060001b905090565b6000819050919050565b61099681610983565b82525050565b60006020820190506109b1600083018461098d565b92915050565b600080fd5b6109c581610983565b81146109d057600080fd5b50565b6000813590506109e2816109bc565b92915050565b6000602082840312156109fe576109fd6109b7565b5b6000610a0c848285016109d3565b91505092915050565b600073ffffffffffffffffffffffffffffffffffffffff82169050919050565b6000610a4082610a15565b9050919050565b610a5081610a35565b82525050565b60008115159050919050565b610a6b81610a56565b82525050565b600061012082019050610a87600083018c610a47565b610a94602083018b61098d565b610aa1604083018a61098d565b610aae606083018961098d565b610abb6080830188610a62565b610ac860a0830187610a47565b610ad560c083018661098d565b610ae260e0830185610a47565b610af061010083018461098d565b9a9950505050505050505050565b610b0781610a35565b8114610b1257600080fd5b50565b600081359050610b2481610afe565b92915050565b60008060008060808587031215610b4457610b436109b7565b5b6000610b52878288016109d3565b9450506020610b63878288016109d3565b9350506040610b7487828801610b15565b9250506060610b85878288016109d3565b91505092959194509250565b6000602082019050610ba66000830184610a47565b92915050565b6000819050919050565b600067ffffffffffffffff82169050919050565b6000819050919050565b6000610bef610bea610be584610bac565b610bca565b610bb6565b9050919050565b610bff81610bd4565b82525050565b6000602082019050610c1a6000830184610bf6565b92915050565b7f4e487b7100000000000000000000000000000000000000000000000000000000600052601160045260246000fd5b6000610c5a82610983565b9150610c6583610983565b9250828201905080821115610c7d57610c7c610c20565b5b92915050565b600082825260208201905092915050565b7f41756374696f6e2068617320656e646564000000000000000000000000000000600082015250565b6000610cca601183610c83565b9150610cd582610c94565b602082019050919050565b60006020820190508181036000830152610cf981610cbd565b9050919050565b7f426964206d75737420626520686967686572207468616e2063757272656e742060008201527f6869676865737420626964000000000000000000000000000000000000000000602082015250565b6000610d5c602b83610c83565b9150610d6782610d00565b604082019050919050565b60006020820190508181036000830152610d8b81610d4f565b9050919050565b7f4f6e6c792061646d696e2063616e20706572666f726d2074686973206163746960008201527f6f6e000000000000000000000000000000000000000000000000000000000000602082015250565b6000610dee602283610c83565b9150610df982610d92565b604082019050919050565b60006020820190508181036000830152610e1d81610de1565b9050919050565b7f4475726174696f6e206d7573742062652067726561746572207468616e20312060008201527f6d696e7574650000000000000000000000000000000000000000000000000000602082015250565b6000610e80602683610c83565b9150610e8b82610e24565b604082019050919050565b60006020820190508181036000830152610eaf81610e73565b9050919050565b7f5374617274207072696365206d7573742062652067726561746572207468616e60008201527f2030000000000000000000000000000000000000000000000000000000000000602082015250565b6000610f12602283610c83565b9150610f1d82610eb6565b604082019050919050565b60006020820190508181036000830152610f4181610f05565b9050919050565b6000610f5382610983565b91507fffffffffffffffffffffffffffffffffffffffffffffffffffffffffffffffff8203610f8557610f84610c20565b5b60018201905091905056fea26469706673582212204e49ad6a41b606b27d1f4558a7fc2ffc0088a08a2955359b1c84ab1253d5ba6564736f6c634300081c0033",
  "linkReferences": {},
  "deployedLinkReferences": {}
}