{
  "_format": "hh-sol-artifact-1",
  "contractName": "NFTAuctionV2",
  "sourceName": "contracts/NFTAuction_v2.sol",
  "abi": [
    {
      "inputs": [],
      "name": "InvalidInitialization",
      "type": "error"
    },
    {
      "inputs": [],
      "name": "NotInitializing",
      "type": "error"
    },
    {
      "anonymous": false,
      "inputs": [
        {
          "indexed": false,
          "internalType": "uint64",
          "name": "version",
          "type": "uint64"
        }
      ],
      "name": "Initialized",
      "type": "event"
    },
    {
      "inputs": [],
      "name": "admin",
      "outputs": [
        {
          "internalType": "address",
          "name": "",
          "type": "address"
        }
      ],
      "stateMutability": "view",
      "type": "function"
    },
    {
      "inputs": [
        {
          "internalType": "uint256",
          "name": "",
          "type": "uint256"
        }
      ],
      "name": "auctions",
      "outputs": [
        {
          "internalType": "address",
          "name": "seller",
          "type": "address"
        },
        {
          "internalType": "uint256",
          "name": "duration",
          "type": "uint256"
        },
        {
          "internalType": "uint256",
          "name": "startTime",
          "type": "uint256"
        },
        {
          "internalType": "uint256",
          "name": "startPrice",
          "type": "uint256"
        },
        {
          "internalType": "bool",
          "name": "ended",
          "type": "bool"
        },
        {
          "internalType": "address",
          "name": "highestBidder",
          "type": "address"
        },
        {
          "internalType": "uint256",
          "name": "highestBid",
          "type": "uint256"
        },
        {
          "internalType": "address",
          "name": "nftAddress",
          "type": "address"
        },
        {
          "internalType": "uint256",
          "name": "tokenId",
          "type": "uint256"
        }
      ],
      "stateMutability": "view",
      "type": "function"
    },
    {
      "inputs": [
        {
          "internalType": "uint256",
          "name": "_duration",
          "type": "uint256"
        },
        {
          "internalType": "uint256",
          "name": "_startPrice",
          "type": "uint256"
        },
        {
          "internalType": "address",
          "name": "_nftAddress",
          "type": "address"
        },
        {
          "internalType": "uint256",
          "name": "_tokenId",
          "type": "uint256"
        }
      ],
      "name": "createAuction",
      "outputs": [],
      "stateMutability": "nonpayable",
      "type": "function"
    },
    {
      "inputs": [],
      "name": "initialize",
      "outputs": [],
      "stateMutability": "nonpayable",
      "type": "function"
    },
    {
      "inputs": [],
      "name": "nextAuctionId",
      "outputs": [
        {
          "internalType": "uint256",
          "name": "",
          "type": "uint256"
        }
      ],
      "stateMutability": "view",
      "type": "function"
    },
    {
      "inputs": [
        {
          "internalType": "uint256",
          "name": "_auctionId",
          "type": "uint256"
        }
      ],
      "name": "placeBid",
      "outputs": [],
      "stateMutability": "payable",
      "type": "function"
    },
    {
      "inputs": [],
      "name": "platformFee",
      "outputs": [
        {
          "internalType": "uint256",
          "name": "",
          "type": "uint256"
        }
      ],
      "stateMutability": "view",
      "type": "function"
    },
    {
      "inputs": [],
      "name": "testHello",
      "outputs": [
        {
          "internalType": "string",
          "name": "",
          "type": "string"
        }
      ],
      "stateMutability": "pure",
      "type": "function"
    }
  ],
  "bytecode": "0x6080604052348015600f57600080fd5b506110da8061001f6000396000f3fe60806040526004361061007b5760003560e01c8063b1cb48ef1161004e578063b1cb48ef14610123578063c97c63531461014c578063f851a44014610177578063fc528482146101a25761007b565b806326232a2e14610080578063571a26a0146100ab5780638129fc1c146100f05780639979ef4514610107575b600080fd5b34801561008c57600080fd5b506100956101cd565b6040516100a29190610a0f565b60405180910390f35b3480156100b757600080fd5b506100d260048036038101906100cd9190610a5b565b6101d3565b6040516100e799989796959493929190610ae4565b60405180910390f35b3480156100fc57600080fd5b5061010561028e565b005b610121600480360381019061011c9190610a5b565b610454565b005b34801561012f57600080fd5b5061014a60048036038101906101459190610b9d565b610648565b005b34801561015857600080fd5b5061016161094e565b60405161016e9190610c94565b60405180910390f35b34801561018357600080fd5b5061018c61098b565b6040516101999190610cb6565b60405180910390f35b3480156101ae57600080fd5b506101b76109b1565b6040516101c49190610a0f565b60405180910390f35b60035481565b60006020528060005260406000206000915090508060000160009054906101000a900473ffffffffffffffffffffffffffffffffffffffff16908060010154908060020154908060030154908060040160009054906101000a900460ff16908060040160019054906101000a900473ffffffffffffffffffffffffffffffffffffffff16908060050154908060060160009054906101000a900473ffffffffffffffffffffffffffffffffffffffff16908060070154905089565b60006102986109b7565b905060008160000160089054906101000a900460ff1615905060008260000160009054906101000a900467ffffffffffffffff1690506000808267ffffffffffffffff161480156102e65750825b9050600060018367ffffffffffffffff1614801561031b575060003073ffffffffffffffffffffffffffffffffffffffff163b145b905081158015610329575080155b15610360576040517ff92ee8a900000000000000000000000000000000000000000000000000000000815260040160405180910390fd5b60018560000160006101000a81548167ffffffffffffffff021916908367ffffffffffffffff16021790555083156103b05760018560000160086101000a81548160ff0219169083151502179055505b33600260006101000a81548173ffffffffffffffffffffffffffffffffffffffff021916908373ffffffffffffffffffffffffffffffffffffffff160217905550831561044d5760008560000160086101000a81548160ff0219169083151502179055507fc7f505b2f371ae2175ee4913f4499e1f2633a7b5936321eed1cdaeb6115181d260016040516104449190610d2a565b60405180910390a15b5050505050565b600080600083815260200190815260200160002090508060040160009054906101000a900460ff1615801561049b575042816001015482600201546104999190610d74565b115b6104da576040517f08c379a00000000000000000000000000000000000000000000000000000000081526004016104d190610df4565b60405180910390fd5b8060050154341180156104f1575080600301543410155b610530576040517f08c379a000000000000000000000000000000000000000000000000000000000815260040161052790610e86565b60405180910390fd5b600073ffffffffffffffffffffffffffffffffffffffff168160040160019054906101000a900473ffffffffffffffffffffffffffffffffffffffff1673ffffffffffffffffffffffffffffffffffffffff16146105f8578060040160019054906101000a900473ffffffffffffffffffffffffffffffffffffffff1673ffffffffffffffffffffffffffffffffffffffff166108fc82600501549081150290604051600060405180830381858888f193505050501580156105f6573d6000803e3d6000fd5b505b338160040160016101000a81548173ffffffffffffffffffffffffffffffffffffffff021916908373ffffffffffffffffffffffffffffffffffffffff1602179055503481600501819055505050565b600260009054906101000a900473ffffffffffffffffffffffffffffffffffffffff1673ffffffffffffffffffffffffffffffffffffffff163373ffffffffffffffffffffffffffffffffffffffff16146106d8576040517f08c379a00000000000000000000000000000000000000000000000000000000081526004016106cf90610f18565b60405180910390fd5b61ea60841161071c576040517f08c379a000000000000000000000000000000000000000000000000000000000815260040161071390610faa565b60405180910390fd5b6000831161075f576040517f08c379a00000000000000000000000000000000000000000000000000000000081526004016107569061103c565b60405180910390fd5b6040518061012001604052803373ffffffffffffffffffffffffffffffffffffffff16815260200185426107939190610d74565b8152602001428152602001848152602001600015158152602001600073ffffffffffffffffffffffffffffffffffffffff168152602001600081526020018373ffffffffffffffffffffffffffffffffffffffff16815260200182815250600080600154815260200190815260200160002060008201518160000160006101000a81548173ffffffffffffffffffffffffffffffffffffffff021916908373ffffffffffffffffffffffffffffffffffffffff16021790555060208201518160010155604082015181600201556060820151816003015560808201518160040160006101000a81548160ff02191690831515021790555060a08201518160040160016101000a81548173ffffffffffffffffffffffffffffffffffffffff021916908373ffffffffffffffffffffffffffffffffffffffff16021790555060c0820151816005015560e08201518160060160006101000a81548173ffffffffffffffffffffffffffffffffffffffff021916908373ffffffffffffffffffffffffffffffffffffffff1602179055506101008201518160070155905050600160008154809291906109439061105c565b919050555050505050565b60606040518060400160405280600d81526020017f48656c6c6f2c20576f726c642100000000000000000000000000000000000000815250905090565b600260009054906101000a900473ffffffffffffffffffffffffffffffffffffffff1681565b60015481565b6000806109c26109cb565b90508091505090565b60007ff0c57e16840df040f15088dc2f81fe391c3923bec73e23a9662efc9c229c6a0060001b905090565b6000819050919050565b610a09816109f6565b82525050565b6000602082019050610a246000830184610a00565b92915050565b600080fd5b610a38816109f6565b8114610a4357600080fd5b50565b600081359050610a5581610a2f565b92915050565b600060208284031215610a7157610a70610a2a565b5b6000610a7f84828501610a46565b91505092915050565b600073ffffffffffffffffffffffffffffffffffffffff82169050919050565b6000610ab382610a88565b9050919050565b610ac381610aa8565b82525050565b60008115159050919050565b610ade81610ac9565b82525050565b600061012082019050610afa600083018c610aba565b610b07602083018b610a00565b610b14604083018a610a00565b610b216060830189610a00565b610b2e6080830188610ad5565b610b3b60a0830187610aba565b610b4860c0830186610a00565b610b5560e0830185610aba565b610b63610100830184610a00565b9a9950505050505050505050565b610b7a81610aa8565b8114610b8557600080fd5b50565b600081359050610b9781610b71565b92915050565b60008060008060808587031215610bb757610bb6610a2a565b5b6000610bc587828801610a46565b9450506020610bd687828801610a46565b9350506040610be787828801610b88565b9250506060610bf887828801610a46565b91505092959194509250565b600081519050919050565b600082825260208201905092915050565b60005b83811015610c3e578082015181840152602081019050610c23565b60008484015250505050565b6000601f19601f8301169050919050565b6000610c6682610c04565b610c708185610c0f565b9350610c80818560208601610c20565b610c8981610c4a565b840191505092915050565b60006020820190508181036000830152610cae8184610c5b565b905092915050565b6000602082019050610ccb6000830184610aba565b92915050565b6000819050919050565b600067ffffffffffffffff82169050919050565b6000819050919050565b6000610d14610d0f610d0a84610cd1565b610cef565b610cdb565b9050919050565b610d2481610cf9565b82525050565b6000602082019050610d3f6000830184610d1b565b92915050565b7f4e487b7100000000000000000000000000000000000000000000000000000000600052601160045260246000fd5b6000610d7f826109f6565b9150610d8a836109f6565b9250828201905080821115610da257610da1610d45565b5b92915050565b7f41756374696f6e2068617320656e646564000000000000000000000000000000600082015250565b6000610dde601183610c0f565b9150610de982610da8565b602082019050919050565b60006020820190508181036000830152610e0d81610dd1565b9050919050565b7f426964206d75737420626520686967686572207468616e2063757272656e742060008201527f6869676865737420626964000000000000000000000000000000000000000000602082015250565b6000610e70602b83610c0f565b9150610e7b82610e14565b604082019050919050565b60006020820190508181036000830152610e9f81610e63565b9050919050565b7f4f6e6c792061646d696e2063616e20706572666f726d2074686973206163746960008201527f6f6e000000000000000000000000000000000000000000000000000000000000602082015250565b6000610f02602283610c0f565b9150610f0d82610ea6565b604082019050919050565b60006020820190508181036000830152610f3181610ef5565b9050919050565b7f4475726174696f6e206d7573742062652067726561746572207468616e20312060008201527f6d696e7574650000000000000000000000000000000000000000000000000000602082015250565b6000610f94602683610c0f565b9150610f9f82610f38565b604082019050919050565b60006020820190508181036000830152610fc381610f87565b9050919050565b7f5374617274207072696365206d7573742062652067726561746572207468616e60008201527f2030000000000000000000000000000000000000000000000000000000000000602082015250565b6000611026602283610c0f565b915061103182610fca565b604082019050919050565b6000602082019050818103600083015261105581611019565b9050919050565b6000611067826109f6565b91507fffffffffffffffffffffffffffffffffffffffffffffffffffffffffffffffff820361109957611098610d45565b5b60018201905091905056fea26469706673582212205319dfe45f8487875f227633752d312cda6d718f6ef703bb1da10744c680416264736f6c634300081c0033",
  "linkReferences": {},
  "deployedLinkReferences": {}
}